:100000000C94771C189500001895000018950000B6
:10001000189500001895000018950000189500002C
:10002000189500001895000018950000189500001C
:10003000189500001895000018950000189500000C
:100040000C947100189500000C94A7010C94020206
:1000500018950000189500001895000018950000EC
:100060000C946106189500000F931F930BE91FE095
:1000700001501040E9F7000000001F910F910F930D
:100080001F930CE91FE001501040E9F70000000049
:1000900000001F910F910150104089F70000089552
:1000A0002F936AD0F8D12F910895259A03E004BDCB
:1000B0000AE005BD0EE407BD01E000936E0000916B
:1000C0006E00016000936E000895EF93FF9300E0CF
:1000D00011E0E0E0F1E001931A95E9F7FF91EF916B
:1000E00008950F931F930FB70F931091010113956C
:1000F000109301011F3F59F100910001101708F002
:100100002D9808F42D9AEF93FF93E0910201F0915E
:1001100003013196E0930201F09303010091FB0586
:1001200000951127000F111F015E1F4FE017F10707
:1001300038F0E0E0F0E0E0930201F0930301316079
:10014000FF91EF910F910FBF1F910F911895A8DFAD
:10015000F9CF00910401000F2BF00DF003950093EF
:1001600004010895DDF3FBCF5A9A5B9A5C9A409A9A
:10017000419A429A439A0895009105014A9916C0FE
:100180000130F9F00395009305010130D1F401E04D
:1001900000930D0100912B06003021F002E0009346
:1001A0003B0603C00EEF00933B060BC0003049F046
:1001B000013019F400E000930D0100E00093050107
:1001C00000C0009106014B9911C00130B9F00395B0
:1001D00000930601013091F400912B06003019F4D0
:1001E0000E943A1102C00E94591108C0003031F03B
:1001F000013001F400E00093060100C00091070106
:100200004C990BC00130A1F0039500930701013018
:1002100079F401E000930C010BC0003049F001308B
:1002200019F400E000930C0100E00093070100C006
:1002300000910801309908C0013071F003950093D6
:100240000801013049F408C0003031F0013001F4F8
:1002500000E00093080100C000910901319908C035
:10026000013071F0039500930901013049F408C091
:10027000003031F0013001F400E00093090100C0CA
:1002800000910A01329908C0013071F00395009382
:100290000A01013049F408C0003031F0013001F4A6
:1002A00000E000930A0100C000910B01339908C0DF
:1002B000013071F0039500930B01013049F408C03F
:1002C000003031F0013001F400E000930B0100C078
:1002D000089508952F93CF93DF930E94DE17DF9147
:1002E000CF912F910895789410911505E1171091F1
:1002F0001605F107C9F3F894089508950091C00018
:1003000005FFFCCF1093C600089500E00093C500E0
:1003100008E00093C4000EE00093C20000E00093E8
:10032000C00008E90093C10000E10093110301E05F
:100330000093120303E10093130503E000931405F7
:1003400003E10093150503E00093160508950F934C
:100350001F930FB70F930091C600CFDF05D00F9109
:100360000FBF1F910F911895EF93FF93E091110329
:10037000F09112030193013019F4E1E1F1E009C0B9
:10038000043021F0E03113E0F10718F0A3DFE0E1E1
:10039000F1E0E0931103F0931203FF91EF910895C0
:1003A000009317050FB70F93EF93FF93F894E09125
:1003B0001305F09114053196E33115E0F10710F0C3
:1003C000E3E1F3E010911505E11710911605F1072F
:1003D00009F489DF009117050083E0931305F0937A
:1003E00014050091C10005FD06C00091C100006226
:1003F0000093C10011D0FF91EF910F910FBF0091B9
:10040000170508950F931F930FB70F9305D00F9102
:100410000FBF1F910F911895EF93FF93E091150572
:10042000F091160510911305E11710911405F107CD
:1004300089F03196E33115E0F10710F0E3E1F3E0E4
:1004400000810093C600E0931505F0931605FF9117
:10045000EF9108950091C1000F7D0093C10039DF35
:10046000FF91EF910895386000911C0500931905E4
:10047000089508950CEF00933B060895EF93FF93C2
:10048000E8E1F5E023E000E001932A95E9F7FF9128
:10049000EF910895089500911805015020F0009300
:1004A000180509F4E6DF00911905015020F00093CA
:1004B000190509F4D8DF00911A05015020F00093C6
:1004C0001A0509F4D7DF08951F9310911F051195A0
:1004D000105800E039D41A95E1F71F910895FBD325
:1004E00000931F051093200500E21DD400E01BD4EB
:1004F00001E219D400911F0516D40FE714D402E2CB
:1005000012D4009120050FD407E00DD40895EF9385
:10051000FF9300E010E0E3DFE0E0F4E000E014D45B
:10052000E150F040D9F7FF91EF9108952F930031FA
:1005300028F0A7D300512ED02F91089510E001305C
:1005400071F00A30F1F00D3071F002500894111F73
:10055000003011F00A95FBCF00911E051027109373
:100560001E052F910895009120050395083008F08D
:1005700000E00093200500911F0510912005AFDFDA
:10058000F0CF00E000931F0500911F05109120059A
:10059000A6DFE7CFEF93FF9310E0000FE02FF0E02E
:1005A000000F111FE00FF11FEE51F64F10911E05C5
:1005B00016FF06C0009120050F9300911F050F93B1
:1005C00026E0059114FF04C0253069F0233059F06E
:1005D0003FD016FF02C00F7052D017FF03C00F9319
:1005E000B3D30F91B1D32A9561F75CD016FF2DC01C
:1005F00036970F9100931F050F910F93039500936A
:1006000020051F9300911F051091200568DF1F91A1
:1006100026E0059114FF04C0253061F0233051F02D
:1006200017D002950F702BD017FF03C00F938CD3F8
:100630000F918AD32A9569F735D00F910093200541
:1006400000911F05109120054ADFFF91EF91089559
:1006500015FF07C0253029F4329724913296022BDA
:1006600025E013FF07C006FB000F08F4006808F040
:100670000F7706F910FD006811FD00950895EF93BE
:10068000FF93E4E9F6E0E00F00E0F01F0491FF9132
:10069000EF91089500030C0F30333C3FC0C3CCCF23
:1006A000F0F3FCFF12FF07C000E017FF03C00F9339
:1006B0004BD30F9149D308950ED301E234D3009167
:1006C0001F0531D300911F05095E2DD302E22BD304
:1006D0000091200528D307E026D308950F93ECDF7F
:1006E0001F91EF93FF93E12FF0E0EE0FFF1FEE0F4E
:1006F000FF1FEE0FFF1F00E0169507951695079553
:10070000E00FF11FE45EF84F08E40F9305911CD34E
:100710000F910A95D1F7FF91EF9108950080601035
:10072000080404020201010101010102020404089B
:10073000106080007E81000000000000007E4242C8
:1007400042427E00000000000000817E0001060899
:1007500010202040408080808080804040202010F9
:100760000806010000806010080404020201010173
:10077000010101028244E408106080007E810000D3
:100780000000000080402010080402010000FF006B
:100790000000817E000106081024264544848484DC
:1007A00084848444442427100806010000806010DB
:1007B00008040402020101010101E1222224E408EB
:1007C000106080007E81000000C040407808080F63
:1007D000010101000000FF000000817E0001060809
:1007E000102724444484848484848444442427102B
:1007F00008060100008060100804040202010101E3
:100800000101010202040488506080007E810080A2
:100810004020201010884844242492924A2925140C
:100820001209857E000107081028244241E09884BF
:100830008281804040202010080601000080601066
:10084000080404020201814101018162528484088A
:10085000106080007E81000020C04080000F30C109
:100860000608130C000000010102837E0001060847
:1008700014232040438482818080804040202010C7
:100880000806010000806010080404020201010152
:100890000101010202040408106080007E81000052
:1008A000000000000000007E0000000000000000CA
:1008B0000000817E000106081020204040808080DA
:1008C00080808040402020100806010000806010D9
:1008D00008040402020101010101010202040408EA
:1008E000106080007E8100000000000000007E009B
:1008F000007E0000000000000000817E000106086C
:100900001020204040808080808080404020201047
:1009100008060100008060100804040202317171B1
:100920002101010202040408106080007E810000A1
:1009300000000000380EFF7F64C482010000000048
:100940000000817E0001060810202040468381803F
:1009500080808744402020100806010001E20093B7
:10096000A10505E00093A20501E20093A30505E0BF
:100970000093A40500E00093A5050EEAD4D105ED8F
:10098000D2D100EFD0D108EACED10FE3CCD103ED24
:10099000CAD100E0C8D100E4C6D10DE8C4D104E159
:1009A000C2D100E2C0D100E0BED101EABCD108EC66
:1009B000BAD10AEDB8D102E1B6D101E8B4D10FEC59
:1009C000B2D109EDB0D101EFAED10BEDACD100E366
:1009D000AAD104EAA8D106EAA6D10FEAA4D197DDEC
:1009E00008950010387C0000007C381000000008DA
:1009F0000C0E0C08001030703010007E4242427E17
:100A0000007E7E7E7E7E3C424242423C0018242490
:100A10001800000018180000FEFCF8F0E0C080800C
:100A20008080808001010101010103070F1F3F7FCA
:100A3000FFFFFFFFFFFF0044281028440010201094
:100A4000080400000000000000005E00000000003C
:100A50000C000C00287C287C2800244A7E5234009C
:100A6000462618646200344A5A24500000000402EA
:100A7000000000003C42420042423C0000002810BE
:100A80007C10280010107C10100000406000000056
:100A9000101010101000000040000000002010088E
:100AA00004003C625A463C0000447E400000645210
:100AB00052524C0022424A4A36001E1010107E004C
:100AC0002E4A4A4A32003C4A4A4830000202721218
:100AD0000E00344A4A4A34000C1252523C000000C4
:100AE0004400000000804400000000102844000082
:100AF0002828282828000044281000000402521248
:100B00000C003C425A5A0C007C1212127E007E4AA3
:100B10004A4A34003C42424224007E4242423C0067
:100B20007E4A4A4A42007E0A0A0A02003C42425277
:100B300030007E0808087E0000427E4200003040FF
:100B400040403E007E08081462007E404040600045
:100B50007E0408047E007E0810207E003C42424253
:100B60003C007E1212120C003C4252623C007E128B
:100B700012126C00244A4A4A300002027E0202002D
:100B80003E4040403E000E3040300E003E601C6053
:100B90003E007608080876000608700806006252D3
:100BA0004A46420000007E42420000040810200035
:100BB00042427E000000000804080000404040401F
:100BC00040007C1212127E007E4A4A4A30007E4A61
:100BD0004A4A34007E02020202007C42427E400009
:100BE0007E4A4A42420076087E08760024424A4AFB
:100BF00034007E2010087E007E20100A7E007E08D1
:100C00000814620040300C027E007E0408047E005E
:100C10007E0808087E003C4242423C007E020202FE
:100C20007E007E1212120C003C424242240002025C
:100C30007E020200064848483E003C427E423C009C
:100C40007608080876007E4040407EC00E101010E6
:100C50007E007E4078407E007E4078407EC0027EEE
:100C6000444438007E4444387E007E444444380086
:100C700024424A4A3C007E083C423C006C1212125C
:100C80007E00003678F0003661F0003840F0003C1D
:100C900040F0003E10F000580895005608950052AC
:100CA000089500E2089500E00093B9000CE000937D
:100CB000B80004E90093BC00000000000000000040
:100CC00008950F931F930FB70F9388D00F910FBF05
:100CD0001F910F9118950F930FB70F937894009170
:100CE000A5050030E1F70F910FBF0F91089500E0C7
:100CF0000093B9000CE00093B80004E80093BC0036
:100D00000091BC0007FFFCCF089500E00093B900FC
:100D10000CE00093B80004EA0093BC000091BC0012
:100D200007FFFCCF08950F93D6DFEFDF08E70093AE
:100D3000BB00DDDF00E00093BB00D9DF0F91009323
:100D4000BB00D5DFB0DF08951F931FB71F93EF934C
:100D5000FF93F8940F93E091A105F091A2053196CD
:100D6000E13A15E0F10710F0E1E2F5E01091A3059A
:100D7000E1171091A405F10729F40091BC0007FFC9
:100D8000FCCF2CD00F91008300911F0510912005FE
:100D90000395003820F000E0173008F41395009315
:100DA0001F0510932005E093A105F093A205009183
:100DB000A505003069F401E00093A505A6DF08E76A
:100DC0000093BB0094DF00E40093BB0090DF06D0EB
:100DD000FF91EF910F910FBF1F910895EF93FF9334
:100DE000E091A305F091A4051091A105E1171091E0
:100DF000A205F107D1F03196E13A15E0F10710F0C4
:100E0000E1E2F5E000810093BB0000E00093B9004F
:100E10000CE00093B80005E80093BC00E093A30544
:100E2000F093A405FF91EF9108953DDF00E000935A
:100E3000A505FF91EF910895EE0FFF1F059100307A
:100E400009F4089573DBFACF0895E093A605F093B3
:100E5000A705FF91EF91EE0FFF1F0591003011F0F4
:100E600065DBFBCF3196F695E795EF93FF93E09125
:100E7000A605F091A70508950191003009F40895A1
:100E800055DBFACF08950F2F02953BD00F2F39D0A5
:100E90000E2F029536D00E2F34D0089500E3009324
:100EA000A80510E127E219D018EE23E016D014E6C9
:100EB00020E013D01AE020E010D000E30E0F36DB64
:100EC0000895EE0FFF1F08F000E308F401E31F93FD
:100ED0002DDB1F911A95A9F7089500E3E117F2079A
:100EE00020F0E11BF20B0395F9CF003331F41091A0
:100EF000A805103321F400E302C00093A80516DB17
:100F000008950F700A3008F4005D003108F4095CA0
:100F10000DDB0895EE0FFF1F0591003009F40895D1
:100F20003FDA0E94421CF8CF0895E093A905F093A0
:100F3000AA05FF91EF91EE0FFF1F0591003021F000
:100F40002FDA0E94421CF9CF3196F695E795EF9380
:100F5000FF93E091A905F091AA0508950191003051
:100F600009F408951DDA0E94421CF8CF08950E2F4F
:100F700002953CD00E2F3AD0089500E30093AB05C4
:100F800010E127E21DD018EE23E01AD014E620E08D
:100F900017D01AE020E014D000E30E0F01DA0E940F
:100FA000421C0895EE0FFF1F08F000E308F401E370
:100FB0001F93F6D90E94421C1F911A9599F7089524
:100FC00000E3E117F20720F0E11BF20B0395F9CFE4
:100FD000003331F41091AB05103321F4089502C0B1
:100FE0000093AB05DDD90E94421C08950F700A30B2
:100FF00008F4005D003108F4095CD2D90E94421C5B
:1010000008950091AC0503950093AC050091AC05E3
:10101000013041F00091FA05013019F007E051D09C
:101020000895089501E00093FA0505E04AD0089577
:101030000091AC0503950093AC050091AC0501301F
:1010400041F00091FA05003019F007E03AD0089518
:10105000089500E00093FA0505E033D0089500916B
:10106000AC05003009F408950091AC050A95009391
:10107000AC050091AC05003009F0089500E0009344
:10108000FA0508E01ED008950091AC05003009F47F
:1010900008950091AC050A950093AC050091AC054C
:1010A000003009F0089501E00093FA0508E009D046
:1010B000089500E00093FA050093AC0504E001D028
:1010C00008951F9310E00093F705033001F40430F6
:1010D00011F410910206053011F410910606063045
:1010E00011F410910A06073011F410910E06083021
:1010F00011F4109112061093F8051F9108950091B4
:10110000F905003009F048C00091F705033019F4E3
:1011100004E0D7DF0895043051F40091F8050F3F43
:1011200021F00FEF0093F8050895C3DF089505300F
:1011300039F406E0C6DF009119060093F60508951C
:101140000630C9F40091F60501500093F60519F434
:1011500008E0B7DF08950091F8050F3F49F00091CE
:10116000F60503950093F6050FEF0093F805089533
:1011700006E0A7DF0895073051F40091F60501500D
:101180000093F60509F4089508E09BDF0895083000
:1011900011F48FDF089508950091F705043018F0D9
:1011A00003E08FDF089500912F060F5F8ADF089517
:1011B00000E00093AC0508950895EF93FF93CF935B
:1011C000DF930F921F9201E010E089D918E100919E
:1011D0001606101B012F110F110F100F16951395E6
:1011E00000E0B2DD1A95E1F7C0E0D0E00091FA0529
:1011F000013051F1EDEAF5E0ED0F10E0F11FC0957F
:1012000001910C9F112DC09500810C9F110D14D0E0
:10121000012F9ADDC03C11F400E096DDC05CDF4F89
:1012200000911606D01730F34FD91F900F90DF9121
:10123000CF91FF91EF9108950FE7105210F00695AE
:10124000FCCF0095102F0895EDEAF5E010911606F9
:10125000E10F10E0F11FED1BF0403197C0950081C8
:101260000C9F112DC095319700810C9F110DE4DF6B
:10127000012F6ADDC03C11F400E066DDC05CDF4F89
:1012800000911606D01700F3CFCFCF93DF93EF93E3
:10129000FF93C2E0D0E0EEEFF5E000E20F93C1BDB6
:1012A000D2BD2196F89A00B501930F910A95B1F736
:1012B000FF91EF91DF91CF910895CF93DF93EF935B
:1012C000FF93C2E0D0E0EEEFF5E000E20F93019172
:1012D000C1BDD2BD219600BDFA9AF99AF999FECF07
:1012E0000F910A9599F7FF91EF91DF91CF910895B2
:1012F000CF93DF93EF93FF93E8E1F3E1CEEFD5E0F7
:1013000000E20F93059109930F910A95D1F7FF9190
:10131000EF91DF91CF910895000F0F0F00070F0F8E
:1013200000070F0F00070F0F00070F0F00070F0F29
:101330001802000800000000CF93DF93EF93FF93A3
:1013400004E00093FE05E0E3F4E13CC0CF93DF93BB
:10135000EF93FF9303E00093FE05ECE1F4E132C06C
:10136000CF93DF93EF93FF9302E00093FE05E8E055
:10137000F4E128C0CF93DF93EF93FF9301E0009354
:10138000FE05E4EFF3E11EC0003091F0013091F36F
:10139000023031F30330D1F2043071F2053009F438
:1013A00065C0063009F458C0073009F44BC00895F1
:1013B000CF93DF93EF93FF9300E00093FE05E0EE01
:1013C000F3E100C0C2E0D6E004E10F930591099378
:1013D0000F910A95D1F7FF91EF91DF91CF91089589
:1013E00000070F0F00070F0F00070F0F00070F0F69
:1013F00000070F0F01070F0F01070F0F01070F0F56
:1014000001070F0F01070F0F02070F0F02070F0F42
:1014100002070F0F02070F0F02070F0F03070F0F2F
:1014200003070F0F03070F0F03070F0F03070F0F1C
:1014300004070F0F04070F0F04070F0F04070F0F08
:1014400004070F0FCF93DF93EF93FF9307E0009311
:10145000FE05EAE4F0E00895CF93DF93EF93FF9366
:1014600006E00093FE05E6E3F0E00895CF93DF93F6
:10147000EF93FF9305E00093FE05E2E2F0E000C089
:10148000C2E0D6E004E10F93E1BDF2BD3196F89AD7
:1014900000B509930F910A95B1F7FF91EF91DF9194
:1014A000CF910895AF93BF93CF93DF93EF93FF93C3
:1014B0002F9301E000932A0600E011E010D8E0919C
:1014C0002406F0912506EE0FFF1F0591013009F06B
:1014D00067C020912606203051F40BEC00932406BF
:1014E0000CE00093250601E000932606E8CF3CD2ED
:1014F00005911591233041F400932406109325069D
:1015000001E000932606DBCF263061F405911591AA
:10151000F8010081023008F00A95008301E0009391
:101520002606CDCF273091F4059115912491F8012D
:101530000081003009F401E00395021710F0022F3A
:101540000A95008301E000932606B9CFABD1A02F06
:10155000B591B03029F1AB1708F0A1E0A03009F443
:10156000A1E0C1E0E0912406F0912506EE0FFF1FF7
:10157000DD275AD1FDD1C83040F4D395DB13F9CF24
:101580000E946402C395C830D8F300E000932A0695
:101590002F91FF91EF91DF91CF91BF91AF9108957E
:1015A00001E20E949602F1CF10E3243618F024568F
:1015B0001395FBCF103319F0012F0E94960210E310
:1015C0002A3018F02A501395FBCF103319F0012F51
:1015D0000E94960210E3120F012F0E9496020895B6
:1015E000DA1741F0EF93FF93E4E1F6E1C7D1FF9101
:1015F000EF9107C0EF93FF93E4E0F6E1BFD1FF91D5
:10160000EF910895000000000000000000000000BD
:1016100000000000000000000000000000000000CA
:1016200000000000B2D138F4C3951AD1A7D1D8DF99
:101630000E946402089598D10895A7D108F05DC072
:10164000C3950ED19BD105911591DA134AC0209113
:1016500026062430B1F425912F932491F8010081BE
:101660001F91003009F00A95011708F4012F0217A5
:1016700008F0022F008301E0009326060F910F91DE
:1016800018CF2530B1F425912F932491F8010081D2
:101690001F910F3F09F00395021708F0022F011761
:1016A00008F4012F008301E0009326060F910F91AB
:1016B00000CF2230B1F425912F932491F8010081BD
:1016C0001F910F3F09F00395201708F4012F011710
:1016D00008F4012F008301E0009326060F910F917B
:1016E000E8CEEF93FF93F8012081FF91EF915CDF4B
:1016F00077DF0E9464023296089536D134960895B9
:1017000044D108F04CC0C395ABD038D105911591A8
:10171000DA1330C020912606243061F4F8010081EC
:10172000003009F00A95008301E0009326060F912E
:101730000F91BFCE253071F42491F80100812A95D4
:10174000021708F40395008301E0009326060F9129
:101750000F91AFCE223071F42491F80100810395EE
:10176000021708F000E0008301E0009326060F91C5
:101770000F919FCEEF93FF93F8012081FF91EF919E
:1017800005910F93203011F0EFD001C0F7D02A95CA
:101790000F910A95B1F724DF0E9464020895E4D006
:1017A00032962191E1D02A95E9F70895EED0D8F448
:1017B000C39556D0E3D014DF0E94640205911591C1
:1017C000DA1310C020912606223061F4EF93FF93C4
:1017D000F8010995FF91EF9101E0009326060F9122
:1017E0000F9167CE0895C0D032960895CED0C8F438
:1017F000C39536D0C3D0F4DE0E94640205911591E2
:10180000DA130EC020912606223051F400932406EC
:101810001093250601E0009326060F910F9149CE03
:101820000895A2D0329608950591013009F447C079
:101830000230E1F2033009F4B9CF043009F460CF8B
:10184000053009F4FACE063009F442C0073009F435
:10185000E9CE0FE30E9496020F910F9196CE089564
:10186000DA1741F0EF93FF93E4E9F8E187D0FF91B5
:10187000EF9107C0EF93FF93E4E8F8E17FD0FF9189
:10188000EF9108951100000000000000000000002A
:101890000000000020000000000000000000000028
:1018A0000000000005911591EF93FF93F80100816E
:1018B000003011F401E00083FF91EF910895C3958A
:1018C0005DD00E946402359608954ED035960895F5
:1018D0005CD008F046C0C395C3DF50D00591159188
:1018E000DA1313C020912606223079F42491F801EE
:1018F0000081021711F0022F01C00027008301E0D0
:10190000009326060F910F91D4CDEF93FF93F8012A
:101910000081FF91EF911591011741F0EF93FF9333
:10192000E2E5F9E12BD0FF91EF9107C0EF93FF9330
:10193000E2E4F9E123D0FF91EF9152DE0E946402CC
:1019400008951F00000000000000000000000000DB
:101950000000000000000000000000000000000087
:10196000000002D03396089505910030E9F70895FC
:101970000491003009F008953196FACF05910030B6
:1019800009F408950E949602F9CF0A2F0D1B10F05A
:10199000063000F408950105202020CEE1F9E8E5A5
:1019A00020EDE0F1F2F0EEE9EAE82020200100CBA2
:1019B0000C2D060B05CAEEEB2ED1F2F3EFE5EDE5AB
:1019C000E9202E2E2E2E20001606081805EEE1F92D
:1019D0002EF1EAEEF0EEF1F2FC202E2E2E2E20005B
:1019E000FF05000F05EEE1F92EFFF0EAEEF1F2FC43
:1019F000202E2E2E2E2E20000006000F05EEE1F9DF
:101A00002EEAEEEDF2F0E0F1F2202E2E2E2E200046
:101A10000106000F05FFF0EA2EEAF0E0E9ED2EF1F5
:101A2000F2F3EFE5ED2E20001806000F05F6E8EAC8
:101A3000EB2E20E4EE20EEF2EAEB2E202E2E2000FC
:101A40001906011905C4E0F2F7E8EAEEE220EDE03C
:101A500020F1F2EEF02E20001706010203201818E4
:101A600000420D0002E4EEEFEEEBEDE8F2E5EBFCF8
:101A7000EDEE2020202020203E00730D03201818BA
:101A800000420D0000E000932B060093F90515DCE1
:101A900005E000931A0500931D05089500E00093EA
:101AA0002B060093F9050FEF12E011BD10E012BDF7
:101AB00000BDFA9AF99AF999FECFF89403EF11E074
:101AC0000E9434000C940000089500E000932B065F
:101AD0000093F905F2DBF89403EF11E00E94340063
:101AE0000C94000008950105202020D0E5F8E5EDD4
:101AF000E8E520EFF0EEE1EBE5EC2020200100CB63
:101B00000C2E060503CFE5F0E5E7E0E3F0F3E7EAA6
:101B1000E0202020202020203E00650D03D1E1F0B0
:101B2000EEF120EDE0F1F2F0EEE5EA2020202020B9
:101B30003E004E0D05C2EAEB2E20F1F2F3EFE5ED8B
:101B4000FC202E2E2E2E2000F5050018022018183D
:101B500000CB0C0001052020CDE0F1F2F0EEE9EA27
:101B6000E820F0E5E6E8ECEEE220200100CB0C2FC7
:101B7000060D02E2E8E7F3E0EBFCEDE0FF20F1F513
:101B8000E5ECE02020203E003F0E03201818004224
:101B90000D0002EEE6E8E4E0EDE8E520202020205C
:101BA0002020202020203E00A40E02E2F5EEE420BA
:101BB00020202020202020202020202020203E0027
:101BC000EF0E02E4E2E8E6E5EDE8E5202020202043
:101BD0002020202020203E003A0F02E2F1F2F0E522
:101BE000F72EE4E2E8E6E5EDE8E5202020203E00DF
:101BF000850F02E2FBF5EEE42020202020202020AB
:101C00002020202020203E00D00F03201818004262
:101C10000D00035361766520617320507265736512
:101C2000745F3000350E0353617665206173205078
:101C300072657365745F3100840E035361766520AD
:101C40006173205072657365745F32002B0E032040
:101C5000181800420D00CF93DF93EF93FF9307E036
:101C60000093FE05EAE4F0E059C0CF93DF93EF93D1
:101C7000FF9305E00093FE05E2E2F0E04FC00105AE
:101C8000202020C2E8E7F3E0EBFCEDFBE520F1F5D6
:101C9000E5ECFB20200100CB0C36060A0342617301
:101CA0006500790E035761766500790E035261690C
:101CB0006E00790E034669726500790E034D6574F6
:101CC000656F7200790E035072657365745F300042
:101CD000790E035072657365745F3100790E03509D
:101CE00072657365745F3200790E0220181800AABD
:101CF0000D00009136060A9547DB0AEA0093240698
:101D00000DE0009325060895CF93DF93EF93FF93A3
:101D100006E00093FE05E6E3F0E000C0C2E0D6E096
:101D200004E10F930991E1BDF2BD319600BDFA9A2D
:101D3000F99AF999FECF0F910A9599F7FF91EF91D2
:101D4000DF91CF919FDE08950105202020202020E3
:101D5000EEE6E8E4E0EDE8E5202020202020200168
:101D600000AA0D31060604FDF4F4E5EAF23A000299
:101D70000605626173650077617665007261696E60
:101D80000066697265006D6574656F72000005F12B
:101D9000EAEEF0EEF1F2FC202E2E2E2E2E2E2E2E1E
:101DA00020000306000F05FFF0EAEEF1F2FC202E02
:101DB0002E2E2E2E2E2E2E2E20000406000F05EA8B
:101DC000EEEDF2F0E0F1F2EDEEF1F2FC202E2E2E2F
:101DD00020000506000F0220181800AA0D000105BA
:101DE0002020202020202020E2F5EEE420202020CA
:101DF00020202020200100AA0D32060604FDF4F464
:101E0000E5EAF23A000606056261736500776176DD
:101E100065007261696E0066697265006D65746562
:101E20006F72000005F1EAEEF0EEF1F2FC202E2ECA
:101E30002E2E2E2E2E2E20000706000F05FFF0EA74
:101E4000EEF1F2FC202E2E2E2E2E2E2E2E2E2000E7
:101E50000806000F05EAEEEDF2F0E0F1F2EDEEF12A
:101E6000F2FC202E2E2E20000906000F022018184A
:101E700000AA0D000105202020202020E4E2E8E651
:101E8000E5EDE8E5202020202020200100AA0D33E8
:101E9000060604FDF4F4E5EAF23A000A060562617A
:101EA00073650077617665007261696E00666972BC
:101EB00065006D6574656F72000005F1EAEEF0EE85
:101EC000F1F2FC202E2E2E2E2E2E2E2E20000B0672
:101ED000000F05FFF0EAEEF1F2FC202E2E2E2E2E42
:101EE0002E2E2E2E20000C06000F05EAEEEDF2F04D
:101EF000E0F1F2EDEEF1F2FC202E2E2E20000D0688
:101F0000000F0220181800AA0D0001052020E2F1A0
:101F1000F2F0E5F7ED2EE4E2E8E6E5EDE8E5202075
:101F2000200100AA0D34060604FDF4F4E5EAF23AB5
:101F3000000E060562617365007761766500726167
:101F4000696E0066697265006D6574656F72000088
:101F500005F1EAEEF0EEF1F2FC202E2E2E2E2E2EC2
:101F60002E2E20000F06000F05FFF0EAEEF1F2FC26
:101F7000202E2E2E2E2E2E2E2E2E20001006000F5E
:101F800005EAEEEDF2F0E0F1F2EDEEF1F2FC202EDA
:101F90002E2E20001106000F0220181800AA0D0096
:101FA00001052020202020202020E2FBF5EEE42067
:101FB000202020202020200100AA0D35060604FD47
:101FC000F4F4E5EAF23A00120605626173650077FF
:101FD000617665007261696E0066697265006D65A3
:101FE00074656F72000005F1EAEEF0EEF1F2FC208C
:101FF0002E2E2E2E2E2E2E2E20001306000F05FF25
:10200000F0EAEEF1F2FC202E2E2E2E2E2E2E2E2E6B
:1020100020001406000F05EAEEEDF2F0E0F1F2ED1B
:10202000EEF1F2FC202E2E2E20001506000F0220CD
:10203000181800AA0D0001052020D1E8ECF3EBFFF1
:10204000F2EEF020F1EEE1FBF2E8E920200100CB16
:102050000C38060703E2F52EF1EBE5E2E020202044
:10206000203E5B2E2E2E5D202000180803E2FBF59B
:102070002EF1EFF0E0E2E02020205B2E2E3E5D20EE
:1020800020002F0803E2F52EF1EFF0E0E2E020203F
:1020900020205B2E2E2E5D3C2000010803E2FBF584
:1020A0002EF1EBE5E2E0202020205B3C2E2E5D208F
:1020B0002000440803EEE6E8E4E0EDE8E520202017
:1020C00020205B2E2E2E5D2020005908032018189A
:1020D00000420D0001052020202020D1F2E0F2E88E
:1020E000F1F2E8EAE02020202020200100CB0C398A
:1020F000060605F7E0F12EF0E0E1EEF2FB202E2ED1
:102100002E2E2E20001A0600000005EAEEEB2EEF20
:10211000F0EEF5EEE4EEE2202E2E2E20001C06005E
:10212000000005F7E0F12EEFEEF1EB2EEFF0EEF50B
:10213000EEE4202000220600000005EFF0EEF52E70
:1021400020E7E020F7E0F1202E2E2E2000230600CD
:1021500000000320181800420D0001052020202057
:1021600020C8EDF4EEF0ECE0F6E8FF20202020207F
:10217000200100CB0C3A060603202020202020203E
:1021800020201800420D030720202D57616C6B6939
:102190006E67204C696768742D2020200100420D75
:1021A00003060520202020202020202020207665E6
:1021B0007220312E300100420D000320202020200B
:1021C000202020201800420D0320027777772E73FD
:1021D0006F692D746563682E636F6D0100420D0099
:1021E00000912C06039500932B06013059F40BEC5B
:1021F000009324060CE00093250601E000932606D8
:1022000051D90895023071F401E00093F9050AEA0A
:10221000009324060DE00093250601E000932606B6
:1022200041D90895033059F40BE10093240600E1ED
:102230000093250601E00093260634D90895043062
:1022400059F40AE60093240600E10093250601E014
:102250000093260627D90895053059F40DEA009316
:10226000240600E10093250601E0009326061AD912
:102270000895089500910C01003061F000912C0642
:10228000073008F00895039500932C060DEF009396
:102290003B06089500912C06003009F408950A9534
:1022A00000932C060DEF00933B0608950E948702D1
:1022B0002EC000910D01013079F000910C01013028
:1022C00019F406E000933B0600910C01003019F46C
:1022D00007E000933B06089500910C01013019F4CA
:1022E00005E000933B0600910C01003019F404E076
:1022F00000933B06089500E013E00E946F020E94E5
:10230000640200E015E00E946F020E94640201E096
:1023100000932A0600912C06000F000F083108F0E8
:10232000085114E00E946F0200912C060030E9F47D
:102330000E94250720202020202020202020201857
:10234000181818181818200000E017E00E946F02F3
:102350000E942507202020202020C2FBEAEBFEF768
:10236000E5EDEE2020202020200000912C060130F9
:10237000E9F40E942507202020201820202020207A
:102380002018181818181820200000E017E00E94E4
:102390006F020E94250720CFEBE0E2EDE0FF20EF87
:1023A000F0EEF1F2E0FF20F2E5ECE00000912C0607
:1023B0000230E9F40E942507202020181820202050
:1023C00020202018181818182020000000E017E01E
:1023D0000E946F020E94250720C1FBF1F2F0E0FF8E
:1023E00020EFF0EEF1F2E0FF20F2E5ECE0000091EA
:1023F0002C060330E1F40E9425072020181818202D
:1024000020202020201818181820200000E017E0B5
:102410000E946F020E942507202020202020D2E564
:10242000ECE020E2EEE4FB202020202020000091C0
:102430002C060430E1F40E942507201818181820F3
:1024400020202020201818182020000000E017E08D
:102450000E946F020E942507202020202020D2E524
:10246000ECE020EEE3EDFF20202020202000009172
:102470002C060530D9F40E942507181818181820C2
:102480002020202020181820200000E017E00E94C3
:102490006F020E942507202020202020CCEEFF2064
:1024A000F2E5ECE0203120202020200000912C06D5
:1024B0000630E9F40E942507202020181818181863
:1024C00018202020202020182020000000E017E005
:1024D0000E946F020E942507202020202020CCEEA1
:1024E000FF20F2E5ECE020322020202020000091A7
:1024F0002C06073049F50E942507202018181818C7
:102500001818182020202020200000E017E00E944A
:102510006F020E942507202020202020C8EDF4EE25
:10252000F0ECE0F6E8FF2020202020000E942507A4
:1025300020C8ECE8F2E0F6E8E820EFF0E8F1F3F28A
:10254000F1F2E2E8FF20000000912C06000F000FDE
:102550000C5D13E00E946F0200912C060E946E0336
:1025600000E000932A06089503000C1000000A649E
:102570000000080A0B000C1000000E1501000C08EA
:1025800003000A5E010004000E10010015000C0497
:1025900064000A1F04000500120001000E07F60087
:1025A0000AFA000006000C00FF000E1803000AF4EF
:1025B000010007000C00FF000E18030015000AF4CC
:1025C00001000800130901000E070A0014000AFAAE
:1025D000000004010E1001000E1702000E17030088
:1025E000140015000C0464000A1F0400050111000A
:1025F00002000E0301000E0302000E0303000AFA9C
:10260000000006010C00FF000E1801000E18020069
:102610000E1803000A2C010007010C00FF000E1821
:1026200001000E1802000E18030015000A2C01000C
:1026300008010C00FF00110802000E0301000E0348
:1026400002000E0303000AFA000004020B000F1739
:1026500001000C0814000A0A000005020B000F0715
:1026600001000A46000006020B000C0714000F00D0
:1026700001000AFA000007020B000C0714000F000B
:1026800001000AFA000008020B000F0801000A7896
:10269000000004030B000F00010010008000140074
:1026A00015000A2C010005030B000F07030011049D
:1026B000020014001000780014000AFA000006035B
:1026C0000B000F07030014001000780014000AFA32
:1026D000000007030B000F0003001000800014002F
:1026E00015000A2C010008030B00140010007800EC
:1026F00014000AFA000004040E07010014050C047B
:1027000046000AF0000005040B000E07010010004F
:1027100002000AF0000006040B000E070200100081
:1027200002000AF0000007040B000E070100100071
:10273000020014050AF0000008040B000C08010058
:102740000AF0000001003460E0913C06F0913D0683
:1027500004910E3108F001E0EEE6F7E2000FE01F11
:1027600010E0F11F05911591F8010995EDCFDD13EA
:10277000EB13EB131F14E814B8148814581428141E
:10278000EB13181536158F15B215D7150E163D1605
:102790006F169516F01622174317581708E6009380
:1027A0003C0605E200933D0600E400933E0606E089
:1027B00000933F063E7F3D7F089501E003D30895D7
:1027C0001F93E0913E06F0913F06E00F10E0F11FED
:1027D00000811F910895F8940091F8050F3F39F199
:1027E00070E0CDEAD5E010E008A978AB088F6091E1
:1027F000FD05060F08F40FEF6091FC05069F012D03
:10280000609116066A95161711F0103031F4609138
:1028100018066295601708F0062F6091F5056A9515
:10282000161709F40FEF099313951831E8F232FDEA
:102830000E947F08B3DF0F910F91789408953D7F38
:102840000091F705033009F4326002E0BBD208952D
:102850003D7F0091F705083041F501E09AD21091D3
:10286000F805011711F532600091FF0502950F6020
:102870001091130612951F60019F1092FB050091A5
:10288000000602950F601091140612951F60019FBB
:102890001092FC050091010602950F60109115063B
:1028A00012951F60019F1092FD0502E08BD20895E2
:1028B0003D7F0091F705073041F501E06AD21091A4
:1028C000F805011711F532600091FF0502950F60C0
:1028D00010910F0612951F60019F1092FB05009149
:1028E000000602950F601091100612951F60019F5F
:1028F0001092FC050091010602950F6010911106DF
:1029000012951F60019F1092FD0502E05BD20895B1
:102910003D7F0091F705063041F501E03AD2109174
:10292000F805011711F532600091FF0502950F605F
:1029300010910B0612951F60019F1092FB050091EC
:10294000000602950F6010910C0612951F60019F02
:102950001092FC050091010602950F6010910D0682
:1029600012951F60019F1092FD0502E02BD2089581
:102970003D7F0091F705053041F501E00AD2109145
:10298000F805011711F532600091FF0502950F60FF
:102990001091070612951F60019F1092FB05009190
:1029A000000602950F601091080612951F60019FA6
:1029B0001092FC050091010602950F601091090626
:1029C00012951F60019F1092FD0502E0FBD1089552
:1029D0003D7F0091F705043041F501E0DAD1109117
:1029E000F805011711F532600091FF0502950F609F
:1029F0001091030612951F60019F1092FB05009134
:102A0000000602950F601091040612951F60019F49
:102A10001092FC050091010602950F6010910506C9
:102A200012951F60019F1092FD0502E0CBD1089521
:102A300031FF16C001E0ADD1C591D59100E0C0DEF7
:102A4000019111910C171D0730F40F5F1F4F329742
:102A5000019311933B7F03E0B5D102E0A5D1089526
:102A600000E0AEDE00E001930193F5CF31FF52C0EC
:102A700001E08FD1602F003130F000E0A1DE0030A6
:102A800071F401E000836F70C5ECD5E078E1088D4A
:102A900018810AD0088FCF5FDF4F7A95C1F702E027
:102AA00091D101E081D10895603011F4012F089592
:102AB000613011F401230895623011F4012B08955F
:102AC000633011F401270895643039F40F921F9296
:102AD000019F012D1F900F900895653021F401177B
:102AE00008F4012F0895663021F4011708F0012F32
:102AF0000895673021F4010F08F40FEF089569304D
:102B000019F4012F00950895683019F4011B08F499
:102B100000E0089500E054DE00E00083C0CF31FF04
:102B20001CC001E036D1602F003130F000E048DEFB
:102B3000003071F401E0008302E02BD1102F6F70A0
:102B4000CDEDD5E078E10881AFDF09937A95D9F72B
:102B500003E038D101E028D1089500E031DE00E043
:102B60000083F6CF31FF1EC001E013D1602F00318A
:102B700030F000E025DE003081F401E00083CDED8F
:102B8000D5E003E006D1C00F10E0D11F6F7002E066
:102B900000D1102F088188DF088304E013D101E001
:102BA00003D1089500E00CDE00E00083F6CF31FF92
:102BB0002FC000E005DE0F3F31F101E0EAD0602FC9
:102BC0006F7004FF06C000E0FBDD0F3F09F00395C6
:102BD000008302E0DED0102F01E0F2DD010F008360
:102BE00010911606019FCDEDD5E0C10D10E0D11F6B
:102BF00017E1111620F40981102D56DF0983088191
:102C0000109552DF088303E0DDD002E0CDD00895B7
:102C100000E0D6DD00E001930193F5CF31FF28C03D
:102C200001E0B7D0602F6F70003130F000E0C8DDF8
:102C30000030C9F401E0008302E0ABD0702F0E94A5
:102C4000A90010911606011B0117E8F7CDEDD5E09C
:102C5000C00F10E0D11F0E94A900102F088124DFAF
:102C600008837A9561F703E0ADD001E09DD0089527
:102C700000E0A6DD00E00083F6CF31FF2BC000E0CE
:102C80009FDD0F3F11F101E084D0602F6F7004FFD2
:102C900006C000E095DD0F3F09F00395008302E0D8
:102CA00078D0702FCDEDD5E0109116061F9370955A
:102CB0000881079F1F9270951981179F1F91110D11
:102CC000F3DE09931F911A9589F703E07BD001E0A9
:102CD0006BD0089500E074DD00E00083F6CF31FF93
:102CE0001FC001E056D0602F6F7002E052D0702FED
:102CF00000E066DD070F08F40FEF702F0083CDEDC5
:102D0000D5E0109116061F930881172FCDDE099389
:102D10001F911A95C1F703E055D001E045D0089501
:102D200000E04EDD00E00083F6CF31FF2DC000E073
:102D300047DD0F3F21F101E02CD0602F6F7002E0E2
:102D400028D0702F00E03CDD070F08F40FEF008360
:102D5000109116060095019FCDEDD5E070911606F5
:102D6000711508F41FEF171608F410E0711509F437
:102D7000102D1095088198DE09937A9589F703E064
:102D800021D001E011D0089500E01ADD00E00083B9
:102D9000F6CF1F93E0913C06F0913D06E00F10E066
:102DA000F11F04911F9108951F93E0913E06F09149
:102DB0003F06E00F10E0F11FE0933E06F0933F0660
:102DC0001F9108951F93E0913C06F0913D06E00F9E
:102DD00010E0F11FE0933C06F0933D061F9108952B
:102DE00031FF2BC000E0ECDC0F3F11F101E0D1DF3F
:102DF000602F6F7002E0CDDF702F00E0E1DC070F85
:102E000008F40FEF008310911606019FCDEDD5E079
:102E100070911606711508F41FEF171608F410E0EC
:102E2000711509F4102D08813FDE09937A9591F709
:102E300003E0C8DF01E0B8DF089500E0C1DC00E096
:102E40000083F6CF31FF1CC001E0A3DF602F6F705D
:102E5000CDEDD5E0FE0100911606E00F10E0F11F68
:102E6000E150F04008801080002D112D1DDE0993E7
:102E7000012D102D19DE00833197CE17DF0790F357
:102E800002E0A0DF089531FF10C0CDEDD5E0FE01D6
:102E900000911606E00F10E0F11FE150F04009919B
:102EA00000833197CE17DF07D0F301E08BDF089561
:102EB00031FF65C001E06DDF602F6F70003130F0D1
:102EC00000E07EDC0030A9F401E0008302E061DF75
:102ED000E4E6FFE210911606E10F10E0F11FE49125
:102EE000003091F1013021F1023041F0033009F45A
:102EF0004BC003E067DF01E057DF0895EE0FCDED33
:102F0000D5E070E008817E9F102DCEDD099373958A
:102F10000091160606957017A8F37091160676951F
:102F200008817E9F102DC0DD09937A95C9F7E1CF06
:102F3000CDEDD5E07091160608817E9F102DB4DD91
:102F400009937A95C9F7D5CFCDEDD5E070E008812A
:102F50007E9F102DA9DD09937395109116067117A8
:102F6000B0F3C7CF00FF7F553F332A241F1C19172A
:102F700015131211100F0E0D0C0C0B0B0A0000E0B4
:102F80001FDC00E00083B5CFEE0FCDEDD5E07091F2
:102F90001606769508817E9F102D86DD09937A9519
:102FA000C9F770E008817E9F102D7EDD099373952F
:102FB0000091160606957017A8F39BCFC1E1D1E0EA
:102FC000E2EDFFE242D4EF3F1FEFF10709F408956D
:102FD00009945359531F0C9408184745541F0C94D7
:102FE000AF195345541F0C945D1A4F4B211F0C947D
:102FF000241C4552211F0C94231CFF000E9495079E
:10300000014F4B211F72656164791F040000089510
:10301000E2E2F0E31AD4EF3F1FEFF10709F408955D
:1030200009947273741F0C9430186465661F0C94B5
:10303000201872656164793F1F000C94FE17FF0031
:103040000E949507014F4B211F6465661F04000015
:10305000789403EF11E00E9434000E944E0D089511
:103060000E949507014F4B211F7273741F040000CB
:10307000789403EF11E00E9434000E94650D0895DA
:103080000E949507014F4B211F73657474696E6729
:10309000731F020000E00093A20613D00091A20665
:1030A0000F930E94950703000F91EF93FF93E02F7A
:1030B000F0E00E94B707FF91EF910E94950704008E
:1030C0000895EF93FF93E0911606F0E00E94BD078C
:1030D000FF91EF910E9495073B00EF93FF93E091E2
:1030E0001E06F0E00E94BD07FF91EF910E94950738
:1030F0003B00EF93FF93E0911906F0E00E94BD07BB
:10310000FF91EF910E9495073B00EF93FF93E091B1
:103110001F06F0E00E94BD07FF91EF910E94950706
:103120003B00EF93FF93E0912006F0E00E94BD0783
:10313000FF91EF910E9495073B00EF93FF93E09181
:10314000FF05F0E00E94BD07FF91EF910E949507F7
:103150003B00EF93FF93E0910106F0E00E94BD0772
:10316000FF91EF910E9495073B00EF93FF93E09151
:103170000006F0E00E94BD07FF91EF910E949507C5
:103180003B00EF93FF93E0911806F0E00E94BD072B
:10319000FF91EF910E9495073B00EF93FF93E09121
:1031A000FE05F0E00E94BD07FF91EF910E94950798
:1031B0003B00EF93FF93E0910206F0E00E94BD0711
:1031C000FF91EF910E9495073B00EF93FF93E091F1
:1031D0000306F0E00E94BD07FF91EF910E94950762
:1031E0003B00EF93FF93E0910506F0E00E94BD07DE
:1031F000FF91EF910E9495073B00EF93FF93E091C1
:103200000406F0E00E94BD07FF91EF910E94950730
:103210003B00EF93FF93E0910606F0E00E94BD07AC
:10322000FF91EF910E9495073B00EF93FF93E09190
:103230000706F0E00E94BD07FF91EF910E949507FD
:103240003B00EF93FF93E0910906F0E00E94BD0779
:10325000FF91EF910E9495073B00EF93FF93E09160
:103260000806F0E00E94BD07FF91EF910E949507CC
:103270003B00EF93FF93E0910A06F0E00E94BD0748
:10328000FF91EF910E9495073B00EF93FF93E09130
:103290000B06F0E00E94BD07FF91EF910E94950799
:1032A0003B00EF93FF93E0910D06F0E00E94BD0715
:1032B000FF91EF910E9495073B00EF93FF93E09100
:1032C0000C06F0E00E94BD07FF91EF910E94950768
:1032D0003B00EF93FF93E0911206F0E00E94BD07E0
:1032E000FF91EF910E9495073B00EF93FF93E091D0
:1032F0001306F0E00E94BD07FF91EF910E94950731
:103300003B00EF93FF93E0911506F0E00E94BD07AC
:10331000FF91EF910E9495073B00EF93FF93E0919F
:103320001406F0E00E94BD07FF91EF910E949507FF
:103330003B00EF93FF93E091F505F0E00E94BD079D
:10334000FF91EF910E9495073B00EF93FF93E0916F
:103350002106F0E00E94BD07FF91EF910895E0E79C
:10336000F3E373D2EF3F1FEFF10709F408950994D7
:1033700073657474696E67731F000C9440186170F4
:10338000691F0C94C81973631F000C94F119FF0096
:103390000E949507014F4B211F6170691F020000B9
:1033A00000E00093A2060E9495075B5B353B353B2E
:1033B000355D2C5B353B353B355D5D000091A206EC
:1033C0000F930E94950703000F91EF93FF93E02F57
:1033D000F0E00E94B707FF91EF910E94950704006B
:1033E00008950E949507014F4B211F73631F020030
:1033F00000E00093A2060E949507303B3132333B38
:103400003243373541423A312E313B324337354131
:10341000423A312E320D00000091A2060F930E9415
:10342000950703000F91EF93FF93E02FF0E00E94C8
:10343000B707FF91EF910E9495070400089521D0EE
:103440000E94C4090E949507014F4B211F677368B2
:103450001F02000000E00093A20633DE0091A206E6
:103460000F930E94950703000F91EF93FF93E02FB6
:10347000F0E00E94B707FF91EF910E9495070400CA
:1034800008952196EF93FF93E0E0F0E00991005357
:103490000A3078F40F93EE0FFF1F8F01EE0FFF1F1E
:1034A000EE0FFF1FE00FF11F0F91E00F10E0F11F73
:1034B000EDCF8F01FF91EF910895ECECF4E3C5D1CE
:1034C000EF3F1FEFF10709F4089509946761631F47
:1034D0000C94931B676C741F0C94DB1B6763731F46
:1034E0000C94F31B6770691F0C94FF1B676D641FBE
:1034F0000C94171C6773681F0C941F1A6773701F56
:103500000C94EF1A676C621F0C94FB1A6775621FAC
:103510000C94071B6773621F0C94CF1B7374701F8E
:103520000C949F1B7373701F0C94AB1B736C621F06
:103530000C94B71B7375621F0C94C31B6974701FC6
:103540000C94631B6973701F0C946F1B696C621F72
:103550000C947B1B6975621F0C94871B6674701F2B
:103560000C942B1B6673701F0C94391B666C621FC6
:103570000C94471B6675621F0C94551B6F74701F6B
:103580000C94D71A6F73701F0C94E31A6F6C621F40
:103590000C94131B6F75621F0C941F1B5F63681FD5
:1035A0000C94E71B5F696D1F0C940B1CFF0069DF17
:1035B000009312060E949507014F4B211F6F7470F4
:1035C0001F04000008955DDF009313060E94950715
:1035D000014F4B211F6F73701F040000089551DFCE
:1035E0000093FF050E949507014F4B211F677370E1
:1035F0001F040000089545DF009301060E9495070F
:10360000014F4B211F676C621F040000089539DFD2
:10361000009300060E949507014F4B211F677562BA
:103620001F04000008952DDF009315060E949507E2
:10363000014F4B211F6F6C621F040000089521DFB2
:10364000009314060E949507014F4B211F6F75626E
:103650001F040000089515DF00930A0600930E066C
:103660000E949507014F4B211F6674701F040000D4
:10367000089507DF00930B0600930F060E9495073D
:10368000014F4B211F6673701F0400000895F9DE7F
:1036900000930D06009311060E949507014F4B21E0
:1036A0001F666C621F0400000895EBDE00930C0699
:1036B000009310060E949507014F4B211F6675620B
:1036C0001F0400000895DDDE009306060E949507A2
:1036D000014F4B211F6974701F0400000895D1DE53
:1036E000009307060E949507014F4B211F697370D5
:1036F0001F0400000895C5DE009309060E94950787
:10370000014F4B211F696C621F0400000895B9DE50
:10371000009308060E949507014F4B211F697562AF
:103720001F0400000895ADDE009316060E94950761
:10373000014F4B211F6761631F0400000895A1DE44
:10374000009302060E949507014F4B211F7374706E
:103750001F040000089595DE009303060E9495075C
:10376000014F4B211F7373701F040000089589DE01
:10377000009305060E949507014F4B211F736C6251
:103780001F04000008957DDE009304060E94950743
:10379000014F4B211F7375621F040000089571DEF5
:1037A000009318060E949507014F4B211F67736213
:1037B0001F040000089565DE00931E060E94950711
:1037C000014F4B211F676C741F040000089559DEE0
:1037D0000093F5050E949507014F4B211F5F636819
:1037E0001F04000008954DDE009319060E949507FE
:1037F000014F4B211F6763731F040000089541DED2
:1038000000931F060E949507014F4B211F677069A7
:103810001F040000089535DE009321060E949507DD
:10382000014F4B211F5F696D1F040000089529DEC1
:10383000009320060E949507014F4B211F676D647E
:103840001F040000089508950895C093A006D09322
:10385000A106C091A006D091A10615911F3F19F4B1
:10386000EFEFFFEF08950991011731F436D01F31C2
:10387000A1F7F695E79508951F3109F034D02DD0C2
:103880003496E7CF2F930F932091A2060227222789
:1038900000FF02C01EE5212701FF02C01CEB21270B
:1038A00002FF02C011E6212703FF02C012EC21270C
:1038B00004FF02C01DE9212705FF02C013E22127F2
:1038C00006FF02C016E4212707FF02C01CE82127DB
:1038D0002093A2060F912F9108950491003009F0D2
:1038E00008953196FACF05910F31E9F708950FEF5A
:1038F0000DBF08E00EBF03E610E00E943400E0E0D8
:10390000F1E000E00193E03019E0F107D9F7EEE1D2
:10391000F0E0EA950083E9F733270E9455000E9402
:10392000B4000E9485010E944A020E94AE040E94D7
:10393000D8080E94DC080E94CE1378940E94870267
:103940000AE012E00E946F020E94250708095761F1
:103950006C6B696E670100000AE014E00E946F0260
:103960000E94250708094C696768740100000AE590
:1039700010E00E946F020E9425070605534F492060
:1039800054454348010007EB1BE00E94340012E05D
:1039900011BD10E012BDF89A00B50F3F19F00E945A
:1039A000450902C00E94780908E00E9461080AE007
:1039B0000093F8050E94561101E000931905009349
:1039C0001C050E949507014F4B211F7265616479A8
:1039D0001F0400000FEF00933B0630FD0E94A3136D
:1039E00033FD0E94DD08377F00913B0600913B06C6
:1039F0000F3FB1F00C3F19F40E9456110EC00D3F5D
:103A000019F40E947B1109C00E3F19F40E94F010B6
:103A100004C0009326060E94520A0FEF00933B0653
:023A2000DCCFF9
:00000001FF
